{
  "_format": "hh-sol-artifact-1",
  "contractName": "BuyoutHandler",
  "sourceName": "contracts/BuyoutHandler.sol",
  "abi": [
    {
      "inputs": [
        {
          "internalType": "address",
          "name": "_usdcAddress",
          "type": "address"
        },
        {
          "internalType": "address",
          "name": "_owner",
          "type": "address"
        }
      ],
      "stateMutability": "nonpayable",
      "type": "constructor"
    },
    {
      "inputs": [
        {
          "internalType": "address",
          "name": "owner",
          "type": "address"
        }
      ],
      "name": "OwnableInvalidOwner",
      "type": "error"
    },
    {
      "inputs": [
        {
          "internalType": "address",
          "name": "account",
          "type": "address"
        }
      ],
      "name": "OwnableUnauthorizedAccount",
      "type": "error"
    },
    {
      "inputs": [],
      "name": "ReentrancyGuardReentrantCall",
      "type": "error"
    },
    {
      "anonymous": false,
      "inputs": [
        {
          "indexed": true,
          "internalType": "uint256",
          "name": "offerId",
          "type": "uint256"
        },
        {
          "indexed": false,
          "internalType": "uint256",
          "name": "totalVotes",
          "type": "uint256"
        }
      ],
      "name": "BuyoutAccepted",
      "type": "event"
    },
    {
      "anonymous": false,
      "inputs": [
        {
          "indexed": true,
          "internalType": "uint256",
          "name": "offerId",
          "type": "uint256"
        }
      ],
      "name": "BuyoutCancelled",
      "type": "event"
    },
    {
      "anonymous": false,
      "inputs": [
        {
          "indexed": true,
          "internalType": "uint256",
          "name": "offerId",
          "type": "uint256"
        },
        {
          "indexed": true,
          "internalType": "address",
          "name": "buyer",
          "type": "address"
        },
        {
          "indexed": false,
          "internalType": "address",
          "name": "poolAddress",
          "type": "address"
        }
      ],
      "name": "BuyoutExecuted",
      "type": "event"
    },
    {
      "anonymous": false,
      "inputs": [
        {
          "indexed": true,
          "internalType": "uint256",
          "name": "offerId",
          "type": "uint256"
        },
        {
          "indexed": true,
          "internalType": "address",
          "name": "buyer",
          "type": "address"
        },
        {
          "indexed": true,
          "internalType": "address",
          "name": "poolAddress",
          "type": "address"
        },
        {
          "indexed": false,
          "internalType": "uint256",
          "name": "offerAmount",
          "type": "uint256"
        },
        {
          "indexed": false,
          "internalType": "uint256",
          "name": "votingDeadline",
          "type": "uint256"
        }
      ],
      "name": "BuyoutProposed",
      "type": "event"
    },
    {
      "anonymous": false,
      "inputs": [
        {
          "indexed": true,
          "internalType": "uint256",
          "name": "offerId",
          "type": "uint256"
        },
        {
          "indexed": false,
          "internalType": "uint256",
          "name": "totalVotes",
          "type": "uint256"
        }
      ],
      "name": "BuyoutRejected",
      "type": "event"
    },
    {
      "anonymous": false,
      "inputs": [
        {
          "indexed": true,
          "internalType": "uint256",
          "name": "offerId",
          "type": "uint256"
        },
        {
          "indexed": true,
          "internalType": "address",
          "name": "voter",
          "type": "address"
        },
        {
          "indexed": false,
          "internalType": "bool",
          "name": "accept",
          "type": "bool"
        },
        {
          "indexed": false,
          "internalType": "uint256",
          "name": "weight",
          "type": "uint256"
        }
      ],
      "name": "BuyoutVoteCast",
      "type": "event"
    },
    {
      "anonymous": false,
      "inputs": [
        {
          "indexed": true,
          "internalType": "uint256",
          "name": "offerId",
          "type": "uint256"
        },
        {
          "indexed": true,
          "internalType": "address",
          "name": "buyer",
          "type": "address"
        },
        {
          "indexed": false,
          "internalType": "uint256",
          "name": "amount",
          "type": "uint256"
        }
      ],
      "name": "FundsWithdrawn",
      "type": "event"
    },
    {
      "anonymous": false,
      "inputs": [
        {
          "indexed": true,
          "internalType": "address",
          "name": "previousOwner",
          "type": "address"
        },
        {
          "indexed": true,
          "internalType": "address",
          "name": "newOwner",
          "type": "address"
        }
      ],
      "name": "OwnershipTransferred",
      "type": "event"
    },
    {
      "inputs": [],
      "name": "acceptanceThreshold",
      "outputs": [
        {
          "internalType": "uint256",
          "name": "",
          "type": "uint256"
        }
      ],
      "stateMutability": "view",
      "type": "function"
    },
    {
      "inputs": [
        {
          "internalType": "uint256",
          "name": "",
          "type": "uint256"
        }
      ],
      "name": "buyoutOffers",
      "outputs": [
        {
          "internalType": "uint256",
          "name": "offerId",
          "type": "uint256"
        },
        {
          "internalType": "address",
          "name": "buyer",
          "type": "address"
        },
        {
          "internalType": "address",
          "name": "poolAddress",
          "type": "address"
        },
        {
          "internalType": "uint256",
          "name": "offerAmount",
          "type": "uint256"
        },
        {
          "internalType": "uint256",
          "name": "timestamp",
          "type": "uint256"
        },
        {
          "internalType": "uint256",
          "name": "expirationTime",
          "type": "uint256"
        },
        {
          "internalType": "enum BuyoutHandler.BuyoutStatus",
          "name": "status",
          "type": "uint8"
        },
        {
          "internalType": "uint256",
          "name": "acceptanceVotes",
          "type": "uint256"
        },
        {
          "internalType": "uint256",
          "name": "rejectionVotes",
          "type": "uint256"
        },
        {
          "internalType": "uint256",
          "name": "votingDeadline",
          "type": "uint256"
        }
      ],
      "stateMutability": "view",
      "type": "function"
    },
    {
      "inputs": [
        {
          "internalType": "uint256",
          "name": "offerId",
          "type": "uint256"
        }
      ],
      "name": "cancelBuyout",
      "outputs": [],
      "stateMutability": "nonpayable",
      "type": "function"
    },
    {
      "inputs": [
        {
          "internalType": "uint256",
          "name": "offerId",
          "type": "uint256"
        },
        {
          "internalType": "address",
          "name": "domainNFTAddress",
          "type": "address"
        },
        {
          "internalType": "uint256",
          "name": "tokenId",
          "type": "uint256"
        }
      ],
      "name": "executeBuyout",
      "outputs": [],
      "stateMutability": "nonpayable",
      "type": "function"
    },
    {
      "inputs": [
        {
          "internalType": "uint256",
          "name": "offerId",
          "type": "uint256"
        }
      ],
      "name": "finalizeVoting",
      "outputs": [],
      "stateMutability": "nonpayable",
      "type": "function"
    },
    {
      "inputs": [
        {
          "internalType": "uint256",
          "name": "offerId",
          "type": "uint256"
        }
      ],
      "name": "getOfferDetails",
      "outputs": [
        {
          "internalType": "address",
          "name": "buyer",
          "type": "address"
        },
        {
          "internalType": "address",
          "name": "poolAddress",
          "type": "address"
        },
        {
          "internalType": "uint256",
          "name": "offerAmount",
          "type": "uint256"
        },
        {
          "internalType": "uint256",
          "name": "timestamp",
          "type": "uint256"
        },
        {
          "internalType": "uint256",
          "name": "expirationTime",
          "type": "uint256"
        },
        {
          "internalType": "enum BuyoutHandler.BuyoutStatus",
          "name": "status",
          "type": "uint8"
        },
        {
          "internalType": "uint256",
          "name": "acceptanceVotes",
          "type": "uint256"
        },
        {
          "internalType": "uint256",
          "name": "rejectionVotes",
          "type": "uint256"
        },
        {
          "internalType": "uint256",
          "name": "votingDeadline",
          "type": "uint256"
        }
      ],
      "stateMutability": "view",
      "type": "function"
    },
    {
      "inputs": [
        {
          "internalType": "address",
          "name": "poolAddress",
          "type": "address"
        }
      ],
      "name": "getPoolOffers",
      "outputs": [
        {
          "internalType": "uint256[]",
          "name": "",
          "type": "uint256[]"
        }
      ],
      "stateMutability": "view",
      "type": "function"
    },
    {
      "inputs": [
        {
          "internalType": "uint256",
          "name": "offerId",
          "type": "uint256"
        },
        {
          "internalType": "address",
          "name": "voter",
          "type": "address"
        }
      ],
      "name": "getVoteChoice",
      "outputs": [
        {
          "internalType": "bool",
          "name": "",
          "type": "bool"
        }
      ],
      "stateMutability": "view",
      "type": "function"
    },
    {
      "inputs": [
        {
          "internalType": "uint256",
          "name": "offerId",
          "type": "uint256"
        },
        {
          "internalType": "address",
          "name": "voter",
          "type": "address"
        }
      ],
      "name": "hasVotedOnOffer",
      "outputs": [
        {
          "internalType": "bool",
          "name": "",
          "type": "bool"
        }
      ],
      "stateMutability": "view",
      "type": "function"
    },
    {
      "inputs": [],
      "name": "offerCount",
      "outputs": [
        {
          "internalType": "uint256",
          "name": "",
          "type": "uint256"
        }
      ],
      "stateMutability": "view",
      "type": "function"
    },
    {
      "inputs": [],
      "name": "owner",
      "outputs": [
        {
          "internalType": "address",
          "name": "",
          "type": "address"
        }
      ],
      "stateMutability": "view",
      "type": "function"
    },
    {
      "inputs": [
        {
          "internalType": "address",
          "name": "",
          "type": "address"
        },
        {
          "internalType": "uint256",
          "name": "",
          "type": "uint256"
        }
      ],
      "name": "poolOffers",
      "outputs": [
        {
          "internalType": "uint256",
          "name": "",
          "type": "uint256"
        }
      ],
      "stateMutability": "view",
      "type": "function"
    },
    {
      "inputs": [
        {
          "internalType": "address",
          "name": "poolAddress",
          "type": "address"
        },
        {
          "internalType": "uint256",
          "name": "offerAmount",
          "type": "uint256"
        },
        {
          "internalType": "uint256",
          "name": "expirationTime",
          "type": "uint256"
        }
      ],
      "name": "proposeBuyout",
      "outputs": [
        {
          "internalType": "uint256",
          "name": "offerId",
          "type": "uint256"
        }
      ],
      "stateMutability": "nonpayable",
      "type": "function"
    },
    {
      "inputs": [],
      "name": "renounceOwnership",
      "outputs": [],
      "stateMutability": "nonpayable",
      "type": "function"
    },
    {
      "inputs": [
        {
          "internalType": "address",
          "name": "newOwner",
          "type": "address"
        }
      ],
      "name": "transferOwnership",
      "outputs": [],
      "stateMutability": "nonpayable",
      "type": "function"
    },
    {
      "inputs": [
        {
          "internalType": "uint256",
          "name": "newThreshold",
          "type": "uint256"
        }
      ],
      "name": "updateAcceptanceThreshold",
      "outputs": [],
      "stateMutability": "nonpayable",
      "type": "function"
    },
    {
      "inputs": [
        {
          "internalType": "uint256",
          "name": "newPeriod",
          "type": "uint256"
        }
      ],
      "name": "updateVotingPeriod",
      "outputs": [],
      "stateMutability": "nonpayable",
      "type": "function"
    },
    {
      "inputs": [],
      "name": "usdcAddress",
      "outputs": [
        {
          "internalType": "address",
          "name": "",
          "type": "address"
        }
      ],
      "stateMutability": "view",
      "type": "function"
    },
    {
      "inputs": [
        {
          "internalType": "uint256",
          "name": "offerId",
          "type": "uint256"
        },
        {
          "internalType": "bool",
          "name": "accept",
          "type": "bool"
        },
        {
          "internalType": "uint256",
          "name": "voteWeight",
          "type": "uint256"
        }
      ],
      "name": "voteOnBuyout",
      "outputs": [],
      "stateMutability": "nonpayable",
      "type": "function"
    },
    {
      "inputs": [],
      "name": "votingPeriod",
      "outputs": [
        {
          "internalType": "uint256",
          "name": "",
          "type": "uint256"
        }
      ],
      "stateMutability": "view",
      "type": "function"
    },
    {
      "inputs": [
        {
          "internalType": "uint256",
          "name": "offerId",
          "type": "uint256"
        }
      ],
      "name": "withdrawRejectedOffer",
      "outputs": [],
      "stateMutability": "nonpayable",
      "type": "function"
    }
  ],
  "bytecode": "0x60803461014057601f6200185138819003918201601f19168301916001600160401b038311848410176101455780849260409485528339810103126101405760206100498261015b565b916001600160a01b0391829161005f910161015b565b16908115610127576000549260018060a01b03199280848616176000558260405195167f8be0079c531659141344cd1fd0a4f28419497f9722a3daafe3b4186f6b6457e0600080a36001805562093a80600655611770600755169182156100d9575060055416176005556040516116e19081620001708239f35b62461bcd60e51b815260206004820152602360248201527f4275796f757448616e646c65723a20496e76616c69642055534443206164647260448201526265737360e81b6064820152608490fd5b604051631e4fbdf760e01b815260006004820152602490fd5b600080fd5b634e487b7160e01b600052604160045260246000fd5b51906001600160a01b03821682036101405756fe6080604081815260048036101561001557600080fd5b600092833560e01c90816302a251a3146114105750806302d45457146113e75780630a9ccf781461133b5780630dc9d2191461129b5780631115c24d1461127c5780631b32e2c1146111f857806349444831146110315780634fb64be214610f8d57806363f516b014610f365780636771414614610c54578063715018a614610bfa5780637f318a5f14610b3b57806380edd3e414610ae55780638da5cb5b14610abd578063a914cb1914610839578063b0edbb9b1461081a578063b9bed5cf146105ff578063ef00ef4314610578578063f2154aee14610365578063f2fde38b146102d55763ff4684771461010a57600080fd5b346102d1576020806003193601126102cd578135926101276115a5565b61013460025485106115c8565b8385526003825280852060018101546001600160a01b03908116919061015b33841461165f565b60068201805460ff811660068110156102ba576102775760ff1916600590811790915554600390920154845163a9059cbb60e01b81526001600160a01b03909416878501908152602081019190915285928492169082908a90829060400103925af190811561026d578691610240575b50156101ff575050507f1fce42599260d2bb3022453c35980d68afe0a3b6c62aedad2e762ebb4f351a788280a26001805580f35b5162461bcd60e51b815291820152601c60248201527f4275796f757448616e646c65723a20526566756e64206661696c656400000000604482015260649150fd5b6102609150833d8511610266575b61025881836114da565b810190611512565b386101cb565b503d61024e565b82513d88823e3d90fd5b855162461bcd60e51b8152808901889052601c60248201527f4275796f757448616e646c65723a2043616e6e6f742063616e63656c000000006044820152606490fd5b634e487b7160e01b8b526021895260248bfd5b8380fd5b8280fd5b50346102d15760203660031901126102d1576102ef61142c565b906102f86114ae565b6001600160a01b0391821692831561034f575050600054826bffffffffffffffffffffffff60a01b821617600055167f8be0079c531659141344cd1fd0a4f28419497f9722a3daafe3b4186f6b6457e0600080a380f35b51631e4fbdf760e01b8152908101849052602490fd5b5090346102d1576020806003193601126102cd578235916103846115a5565b61039160025484106115c8565b8285526003825280852060018101805491956001600160a01b039283166103b933821461165f565b60068801805460ff81166006811015806105655760028214801561054c575b15610509576104f657918461043094928a94156104e7575b505050600386600554169a01998a54918c895180968195829463a9059cbb60e01b84528a840160209093929193604081019460018060a01b031681520152565b03925af19081156104dd5789916104c0575b501561047f5750907ff440aec6b52895984d061d622e6edeba6210f7c3e059be920663140c084560d7939291541694549051908152a36001805580f35b606490858086519262461bcd60e51b845283015260248201527f4275796f757448616e646c65723a205769746864726177616c206661696c65646044820152fd5b6104d79150863d88116102665761025881836114da565b38610442565b85513d8b823e3d90fd5b60ff19161790553884816103f0565b634e487b7160e01b8c526021855260248cfd5b885162461bcd60e51b81528087018b9052601e60248201527f4275796f757448616e646c65723a2043616e6e6f7420776974686472617700006044820152606490fd5b50506000811580156103d8575060058c015442116103d8565b634e487b7160e01b8d526021865260248dfd5b50346102d15760203660031901126102d1578035916105956114ae565b62015180831015806105f2575b156105af57505060065580f35b906020606492519162461bcd60e51b8352820152601d60248201527f4275796f757448616e646c65723a20496e76616c696420706572696f640000006044820152fd5b5062278d008311156105a2565b50919034610816576060366003190112610816578235602435918215159283810361081257604435906106306115a5565b61063d60025485106115c8565b838652602090600382528387209060ff60068301541660068110156107ff576106669015611614565b600982015442116107b157600a8201983360005289845260ff86600020541661076e57841561072057507faaf98f35e03e55a15fb8057da339847c89f2247c4f084f40a2c422291d840f80959697983360005283528460002060ff1990600182825416179055600b83018452856000209081541660ff8a1617905560001461070b576007016106f6838254611582565b90555b82519586528501523393a36001805580f35b600801610719838254611582565b90556106f9565b855162461bcd60e51b8152908101849052602260248201527f4275796f757448616e646c65723a20496e76616c696420766f746520776569676044820152611a1d60f21b6064820152608490fd5b855162461bcd60e51b8152908101849052601c60248201527f4275796f757448616e646c65723a20416c726561647920766f746564000000006044820152606490fd5b845162461bcd60e51b8152808a01849052602260248201527f4275796f757448616e646c65723a20566f74696e6720706572696f6420656e64604482015261195960f21b6064820152608490fd5b634e487b7160e01b895260218a52602489fd5b8480fd5b5080fd5b5050346108165781600319360112610816576020906007549051908152f35b5090346102d15760603660031901126102d1578135610856611447565b9161085f6114ae565b6108676115a5565b61087460025483106115c8565b81855260209060038252808620936006850160ff8154166006811015610aaa57600103610a5d5760058601544211610a1a5760018060a01b0380921696600287019683885416988a600183019a868c541692803b156102d15788516323b872dd60e01b81526001600160a01b039283168782019081529290941660208301526044356040830152839182908490829060600103925af18015610a10576109e0575b50600554885460039290920154865163a9059cbb60e01b81529286166001600160a01b031693830193845260208401529091869183919086169082908d9082906040015b03925af19081156109d6579161099c7f7acfc351800d268464cc59c46a0d14b1e909088cb8b07e43787cc35b6225cc9e9798999285948c916109b9575b5061152a565b600360ff1982541617905554169554169051908152a36001805580f35b6109d09150883d8a116102665761025881836114da565b38610996565b84513d8b823e3d90fd5b67ffffffffffffffff819b929b116109fd57855298610959610915565b506041602492634e487b7160e01b835252fd5b86513d8d823e3d90fd5b825162461bcd60e51b8152808801859052601c60248201527f4275796f757448616e646c65723a204f666665722065787069726564000000006044820152606490fd5b825162461bcd60e51b8152808801859052602160248201527f4275796f757448616e646c65723a204f66666572206e6f7420616363657074656044820152601960fa1b6064820152608490fd5b634e487b7160e01b895260218852602489fd5b505034610816578160031936011261081657905490516001600160a01b039091168152602090f35b50346102d157816003193601126102d1578160209360ff9235610b06611447565b90610b1460025482106115c8565b8252600386528282206001600160a01b039091168252600a01855220549151911615158152f35b509134610bf75781600319360112610bf7578235610b57611447565b90610b6560025482106115c8565b80835260209460038652600a858520019260018060a01b031692838552865260ff858520541615610bb4575091839160ff93825260038652600b83832001908252855220541690519015158152f35b845162461bcd60e51b8152908101869052601c60248201527f4275796f757448616e646c65723a20486173206e6f7420766f746564000000006044820152606490fd5b80fd5b8334610bf75780600319360112610bf757610c136114ae565b80546001600160a01b03198116825581906001600160a01b03167f8be0079c531659141344cd1fd0a4f28419497f9722a3daafe3b4186f6b6457e08280a380f35b5091903461081657606036600319011261081657610c7061142c565b60249384359060443590610c826115a5565b6001600160a01b03938416938415610ee8578315610e925742831115610e415760055486516323b872dd60e01b81523384820190815230602080830191909152604082018890529a9391928b9284928390036060019183918d91165af1908115610e375790610cf7918991610e20575061152a565b600254968781526003895286812093888555600185016bffffffffffffffffffffffff60a01b903382825416179055876002870191825416179055856003860155428486015560058501556006840160ff198154169055806008610d5d60065442611582565b9560098101968755826007820155015585815282895286812080549068010000000000000000821015610e0e5790610d9a91600182018155611480565b939080549460031b60001995868c831b921b1916179055600254938414610dfe5750505060010160025554835191825285820152837f50e751a75397d57d8bf57748a9baffee9ded66e315ca6808a02b96b20dfe07e3843393a46001805551908152f35b634e487b7160e01b825260119052fd5b5050634e487b7160e01b815260418352fd5b6109d091508a3d8c116102665761025881836114da565b87513d8a823e3d90fd5b855162461bcd60e51b81526020818401526026818a01527f4275796f757448616e646c65723a20496e76616c69642065787069726174696f6044820152656e2074696d6560d01b6064820152608490fd5b855162461bcd60e51b8152602081840152602b818a01527f4275796f757448616e646c65723a204f66666572206d7573742062652067726560448201526a061746572207468616e20360ac1b6064820152608490fd5b855162461bcd60e51b81526020818401526023818a01527f4275796f757448616e646c65723a20496e76616c696420706f6f6c206164647260448201526265737360e81b6064820152608490fd5b509134610bf75781600319360112610bf757610f5061142c565b6001600160a01b0316815260209290925280822080546024359390841015610bf75750602092610f7f91611480565b91905490519160031b1c8152f35b50346102d15760203660031901126102d15781610120938235610fb360025482106115c8565b815260036020522060018060a01b039261101f84600184015416946002840154169360038401549084015460058501549060ff60068701541692600787015495600960088901549801549881519a8b5260208b01528901526060880152608087015260a086019061145d565b60c084015260e0830152610100820152f35b5090346102d1576020806003193601126102cd578235926110506115a5565b61105d60025485106115c8565b83855260038252828520926006840180549460ff861660068110156111e5576110869015611614565b6009810154421115611193576110a56008600783015492015482611582565b938415611150576127109182810292818404149015171561113d5750600754908490041061110857805460ff19166001179055519081527f028254aa14f47be337cd9368f112e3a6d286079a85d4a91148efc5799880f0879250a25b6001805580f35b60027fde5ed8996e758676fc8c46105375e02d0f9e1f1e2b2b34863aa86f8feaad32cf9560ff191617905551908152a2611101565b634e487b7160e01b895260119052602488fd5b835162461bcd60e51b8152908101869052601c60248201527f4275796f757448616e646c65723a204e6f20766f7465732063617374000000006044820152606490fd5b825162461bcd60e51b8152808501869052602660248201527f4275796f757448616e646c65723a20566f74696e6720706572696f64206e6f7460448201526508195b99195960d21b6064820152608490fd5b634e487b7160e01b895260218552602489fd5b50346102d15760203660031901126102d1578035916112156114ae565b611388831180611270575b1561122d57505060075580f35b906020606492519162461bcd60e51b8352820152602060248201527f4275796f757448616e646c65723a20496e76616c6964207468726573686f6c646044820152fd5b50612710831115611220565b5050346108165781600319360112610816576020906002549051908152f35b50346102d15760203660031901126102d15781610140938235815260036020522080549261132860018060a01b039384600185015416946002850154169060038501549085015460058601549160ff60068801541693600788015496600960088a01549901549981519b8c5260208c01528a01526060890152608088015260a087015260c086019061145d565b60e0840152610100830152610120820152f35b508234610bf75760209182600319360112610816579192916001600160a01b0361136361142c565b1682528352818120908251808584549182815201908194845286842090845b8181106113d357505050816113989103826114da565b83519485948186019282875251809352850193925b8281106113bc57505050500390f35b8351855286955093810193928101926001016113ad565b825484529288019260019283019201611382565b50503461081657816003193601126108165760055490516001600160a01b039091168152602090f35b8490346108165781600319360112610816576020906006548152f35b600435906001600160a01b038216820361144257565b600080fd5b602435906001600160a01b038216820361144257565b90600682101561146a5752565b634e487b7160e01b600052602160045260246000fd5b80548210156114985760005260206000200190600090565b634e487b7160e01b600052603260045260246000fd5b6000546001600160a01b031633036114c257565b60405163118cdaa760e01b8152336004820152602490fd5b90601f8019910116810190811067ffffffffffffffff8211176114fc57604052565b634e487b7160e01b600052604160045260246000fd5b90816020910312611442575180151581036114425790565b1561153157565b60405162461bcd60e51b815260206004820152602360248201527f4275796f757448616e646c65723a2055534443207472616e73666572206661696044820152621b195960ea1b6064820152608490fd5b9190820180921161158f57565b634e487b7160e01b600052601160045260246000fd5b6002600154146115b6576002600155565b604051633ee5aeb560e01b8152600490fd5b156115cf57565b60405162461bcd60e51b815260206004820152601f60248201527f4275796f757448616e646c65723a20496e76616c6964206f66666572204944006044820152606490fd5b1561161b57565b606460405162461bcd60e51b815260206004820152602060248201527f4275796f757448616e646c65723a204f66666572206e6f742070656e64696e676044820152fd5b1561166657565b60405162461bcd60e51b815260206004820152601c60248201527f4275796f757448616e646c65723a204e6f7420746865206275796572000000006044820152606490fdfea2646970667358221220b8ac720160add6de2a2fa63a0b3a4257cee7450db8a70dafae517f59a044371264736f6c63430008140033",
  "linkReferences": {},
  "deployedLinkReferences": {}
}