{
  "_format": "hh-sol-artifact-1",
  "contractName": "MockDomainNFT",
  "sourceName": "contracts/mocks/MockDomainNFT.sol",
  "abi": [
    {
      "inputs": [],
      "stateMutability": "nonpayable",
      "type": "constructor"
    },
    {
      "inputs": [
        {
          "internalType": "address",
          "name": "sender",
          "type": "address"
        },
        {
          "internalType": "uint256",
          "name": "tokenId",
          "type": "uint256"
        },
        {
          "internalType": "address",
          "name": "owner",
          "type": "address"
        }
      ],
      "name": "ERC721IncorrectOwner",
      "type": "error"
    },
    {
      "inputs": [
        {
          "internalType": "address",
          "name": "operator",
          "type": "address"
        },
        {
          "internalType": "uint256",
          "name": "tokenId",
          "type": "uint256"
        }
      ],
      "name": "ERC721InsufficientApproval",
      "type": "error"
    },
    {
      "inputs": [
        {
          "internalType": "address",
          "name": "approver",
          "type": "address"
        }
      ],
      "name": "ERC721InvalidApprover",
      "type": "error"
    },
    {
      "inputs": [
        {
          "internalType": "address",
          "name": "operator",
          "type": "address"
        }
      ],
      "name": "ERC721InvalidOperator",
      "type": "error"
    },
    {
      "inputs": [
        {
          "internalType": "address",
          "name": "owner",
          "type": "address"
        }
      ],
      "name": "ERC721InvalidOwner",
      "type": "error"
    },
    {
      "inputs": [
        {
          "internalType": "address",
          "name": "receiver",
          "type": "address"
        }
      ],
      "name": "ERC721InvalidReceiver",
      "type": "error"
    },
    {
      "inputs": [
        {
          "internalType": "address",
          "name": "sender",
          "type": "address"
        }
      ],
      "name": "ERC721InvalidSender",
      "type": "error"
    },
    {
      "inputs": [
        {
          "internalType": "uint256",
          "name": "tokenId",
          "type": "uint256"
        }
      ],
      "name": "ERC721NonexistentToken",
      "type": "error"
    },
    {
      "inputs": [
        {
          "internalType": "address",
          "name": "owner",
          "type": "address"
        }
      ],
      "name": "OwnableInvalidOwner",
      "type": "error"
    },
    {
      "inputs": [
        {
          "internalType": "address",
          "name": "account",
          "type": "address"
        }
      ],
      "name": "OwnableUnauthorizedAccount",
      "type": "error"
    },
    {
      "anonymous": false,
      "inputs": [
        {
          "indexed": true,
          "internalType": "address",
          "name": "owner",
          "type": "address"
        },
        {
          "indexed": true,
          "internalType": "address",
          "name": "approved",
          "type": "address"
        },
        {
          "indexed": true,
          "internalType": "uint256",
          "name": "tokenId",
          "type": "uint256"
        }
      ],
      "name": "Approval",
      "type": "event"
    },
    {
      "anonymous": false,
      "inputs": [
        {
          "indexed": true,
          "internalType": "address",
          "name": "owner",
          "type": "address"
        },
        {
          "indexed": true,
          "internalType": "address",
          "name": "operator",
          "type": "address"
        },
        {
          "indexed": false,
          "internalType": "bool",
          "name": "approved",
          "type": "bool"
        }
      ],
      "name": "ApprovalForAll",
      "type": "event"
    },
    {
      "anonymous": false,
      "inputs": [
        {
          "indexed": true,
          "internalType": "address",
          "name": "previousOwner",
          "type": "address"
        },
        {
          "indexed": true,
          "internalType": "address",
          "name": "newOwner",
          "type": "address"
        }
      ],
      "name": "OwnershipTransferred",
      "type": "event"
    },
    {
      "anonymous": false,
      "inputs": [
        {
          "indexed": true,
          "internalType": "address",
          "name": "from",
          "type": "address"
        },
        {
          "indexed": true,
          "internalType": "address",
          "name": "to",
          "type": "address"
        },
        {
          "indexed": true,
          "internalType": "uint256",
          "name": "tokenId",
          "type": "uint256"
        }
      ],
      "name": "Transfer",
      "type": "event"
    },
    {
      "inputs": [
        {
          "internalType": "address",
          "name": "to",
          "type": "address"
        },
        {
          "internalType": "uint256",
          "name": "tokenId",
          "type": "uint256"
        }
      ],
      "name": "approve",
      "outputs": [],
      "stateMutability": "nonpayable",
      "type": "function"
    },
    {
      "inputs": [
        {
          "internalType": "address",
          "name": "owner",
          "type": "address"
        }
      ],
      "name": "balanceOf",
      "outputs": [
        {
          "internalType": "uint256",
          "name": "",
          "type": "uint256"
        }
      ],
      "stateMutability": "view",
      "type": "function"
    },
    {
      "inputs": [
        {
          "internalType": "uint256",
          "name": "tokenId",
          "type": "uint256"
        }
      ],
      "name": "getApproved",
      "outputs": [
        {
          "internalType": "address",
          "name": "",
          "type": "address"
        }
      ],
      "stateMutability": "view",
      "type": "function"
    },
    {
      "inputs": [
        {
          "internalType": "address",
          "name": "owner",
          "type": "address"
        },
        {
          "internalType": "address",
          "name": "operator",
          "type": "address"
        }
      ],
      "name": "isApprovedForAll",
      "outputs": [
        {
          "internalType": "bool",
          "name": "",
          "type": "bool"
        }
      ],
      "stateMutability": "view",
      "type": "function"
    },
    {
      "inputs": [
        {
          "internalType": "address",
          "name": "to",
          "type": "address"
        }
      ],
      "name": "mint",
      "outputs": [
        {
          "internalType": "uint256",
          "name": "",
          "type": "uint256"
        }
      ],
      "stateMutability": "nonpayable",
      "type": "function"
    },
    {
      "inputs": [
        {
          "internalType": "address",
          "name": "to",
          "type": "address"
        },
        {
          "internalType": "uint256",
          "name": "tokenId",
          "type": "uint256"
        }
      ],
      "name": "mintTo",
      "outputs": [],
      "stateMutability": "nonpayable",
      "type": "function"
    },
    {
      "inputs": [],
      "name": "name",
      "outputs": [
        {
          "internalType": "string",
          "name": "",
          "type": "string"
        }
      ],
      "stateMutability": "view",
      "type": "function"
    },
    {
      "inputs": [],
      "name": "owner",
      "outputs": [
        {
          "internalType": "address",
          "name": "",
          "type": "address"
        }
      ],
      "stateMutability": "view",
      "type": "function"
    },
    {
      "inputs": [
        {
          "internalType": "uint256",
          "name": "tokenId",
          "type": "uint256"
        }
      ],
      "name": "ownerOf",
      "outputs": [
        {
          "internalType": "address",
          "name": "",
          "type": "address"
        }
      ],
      "stateMutability": "view",
      "type": "function"
    },
    {
      "inputs": [],
      "name": "renounceOwnership",
      "outputs": [],
      "stateMutability": "nonpayable",
      "type": "function"
    },
    {
      "inputs": [
        {
          "internalType": "address",
          "name": "from",
          "type": "address"
        },
        {
          "internalType": "address",
          "name": "to",
          "type": "address"
        },
        {
          "internalType": "uint256",
          "name": "tokenId",
          "type": "uint256"
        }
      ],
      "name": "safeTransferFrom",
      "outputs": [],
      "stateMutability": "nonpayable",
      "type": "function"
    },
    {
      "inputs": [
        {
          "internalType": "address",
          "name": "from",
          "type": "address"
        },
        {
          "internalType": "address",
          "name": "to",
          "type": "address"
        },
        {
          "internalType": "uint256",
          "name": "tokenId",
          "type": "uint256"
        },
        {
          "internalType": "bytes",
          "name": "data",
          "type": "bytes"
        }
      ],
      "name": "safeTransferFrom",
      "outputs": [],
      "stateMutability": "nonpayable",
      "type": "function"
    },
    {
      "inputs": [
        {
          "internalType": "address",
          "name": "operator",
          "type": "address"
        },
        {
          "internalType": "bool",
          "name": "approved",
          "type": "bool"
        }
      ],
      "name": "setApprovalForAll",
      "outputs": [],
      "stateMutability": "nonpayable",
      "type": "function"
    },
    {
      "inputs": [
        {
          "internalType": "bytes4",
          "name": "interfaceId",
          "type": "bytes4"
        }
      ],
      "name": "supportsInterface",
      "outputs": [
        {
          "internalType": "bool",
          "name": "",
          "type": "bool"
        }
      ],
      "stateMutability": "view",
      "type": "function"
    },
    {
      "inputs": [],
      "name": "symbol",
      "outputs": [
        {
          "internalType": "string",
          "name": "",
          "type": "string"
        }
      ],
      "stateMutability": "view",
      "type": "function"
    },
    {
      "inputs": [
        {
          "internalType": "uint256",
          "name": "tokenId",
          "type": "uint256"
        }
      ],
      "name": "tokenURI",
      "outputs": [
        {
          "internalType": "string",
          "name": "",
          "type": "string"
        }
      ],
      "stateMutability": "view",
      "type": "function"
    },
    {
      "inputs": [
        {
          "internalType": "address",
          "name": "from",
          "type": "address"
        },
        {
          "internalType": "address",
          "name": "to",
          "type": "address"
        },
        {
          "internalType": "uint256",
          "name": "tokenId",
          "type": "uint256"
        }
      ],
      "name": "transferFrom",
      "outputs": [],
      "stateMutability": "nonpayable",
      "type": "function"
    },
    {
      "inputs": [
        {
          "internalType": "address",
          "name": "newOwner",
          "type": "address"
        }
      ],
      "name": "transferOwnership",
      "outputs": [],
      "stateMutability": "nonpayable",
      "type": "function"
    }
  ],
  "bytecode": "0x6080346200037a576001600160401b039060408181018381118382101762000364578152600b82526020916a26b7b1b5902237b6b0b4b760a91b83820152815193828501858110828211176200036457835260068552652227a6a0a4a760d11b84860152815181811162000364576000948554916001948584811c9416801562000359575b8385101462000345578190601f94858111620002f2575b5083908583116001146200028e57899262000282575b5050600019600383901b1c191690851b1786555b86519283116200026e5783548481811c9116801562000263575b828210146200024f5782811162000207575b5080918311600114620001a057508495829394959262000194575b5050600019600383901b1c191690821b1790555b33156200017c5760068054336001600160a01b03198216811790925591519290916001600160a01b0316907f8be0079c531659141344cd1fd0a4f28419497f9722a3daafe3b4186f6b6457e09080a3610e069081620003808239f35b51631e4fbdf760e01b81526004810191909152602490fd5b0151905038806200010c565b90601f198316968487528287209287905b898210620001ef575050838596979810620001d5575b505050811b01905562000120565b015160001960f88460031b161c19169055388080620001c7565b808785968294968601518155019501930190620001b1565b8487528187208380860160051c82019284871062000245575b0160051c019085905b82811062000239575050620000f1565b88815501859062000229565b9250819262000220565b634e487b7160e01b87526022600452602487fd5b90607f1690620000df565b634e487b7160e01b86526041600452602486fd5b015190503880620000b1565b898052848a208894509190601f1984168b5b87828210620002db5750508411620002c1575b505050811b018655620000c5565b015160001960f88460031b161c19169055388080620002b3565b8385015186558b97909501949384019301620002a0565b9091508880528389208580850160051c8201928686106200033b575b918991869594930160051c01915b8281106200032c5750506200009b565b8b81558594508991016200031c565b925081926200030e565b634e487b7160e01b88526022600452602488fd5b93607f169362000084565b634e487b7160e01b600052604160045260246000fd5b600080fdfe6080604081815260048036101561001557600080fd5b600092833560e01c90816301ffc9a7146108165750806306fdde031461074b578063081812fc14610710578063095ea7b31461063457806323b872dd1461061c57806342842e0e146105f3578063449a52f8146105c65780636352211e146105955780636a6278421461053e57806370a08231146104e9578063715018a61461048c5780638da5cb5b1461046357806395d89b411461034a578063a22cb465146102a9578063b88d4fde14610220578063c87b56dd146101cd578063e985e9c51461017b5763f2fde38b146100e957600080fd5b34610177576020366003190112610177576101026108c2565b9061010b610998565b6001600160a01b03918216928315610161575050600654826bffffffffffffffffffffffff60a01b821617600655167f8be0079c531659141344cd1fd0a4f28419497f9722a3daafe3b4186f6b6457e08380a380f35b51631e4fbdf760e01b8152908101849052602490fd5b8280fd5b5050346101c957806003193601126101c95760ff8160209361019b6108c2565b6101a36108dd565b6001600160a01b0391821683526005875283832091168252855220549151911615158152f35b5080fd5b509190346101c95760203660031901126101c9576101ee61021c9335610cb8565b508181516101fb81610928565b5280519161020883610928565b825251918291602083526020830190610882565b0390f35b5090346101775760803660031901126101775761023b6108c2565b6102436108dd565b846064359467ffffffffffffffff86116101c957366023870112156101c9578501359461027b6102728761097c565b9551958661095a565b85855236602487830101116101c957856102a696602460209301838801378501015260443591610b63565b80f35b5090346101775780600319360112610177576102c36108c2565b9060243591821515809303610346576001600160a01b03169283156103315750338452600560205280842083855260205280842060ff1981541660ff8416179055519081527f17307eab39ab6107e8899845ad3d59bd9653f200f220920489ca2b5937696c3160203392a380f35b836024925191630b61174360e31b8352820152fd5b8480fd5b5091346104605780600319360112610460578151918160019283549384811c91818616958615610456575b6020968785108114610443578899509688969785829a52918260001461041c5750506001146103c1575b50505061021c92916103b291038561095a565b51928284938452830190610882565b91908693508083527fb10e2d527612073b26eecdfd717e6a320cf44b4afac2b0732d9fcbe2b7fa0cf65b82841061040457505050820101816103b261021c61039f565b8054848a0186015288955087949093019281016103eb565b60ff19168782015293151560051b860190930193508492506103b2915061021c905061039f565b634e487b7160e01b835260228a52602483fd5b92607f1692610375565b80fd5b5050346101c957816003193601126101c95760065490516001600160a01b039091168152602090f35b83346104605780600319360112610460576104a5610998565b600680546001600160a01b0319811690915581906001600160a01b03167f8be0079c531659141344cd1fd0a4f28419497f9722a3daafe3b4186f6b6457e08280a380f35b509134610460576020366003190112610460576001600160a01b0361050c6108c2565b169283156105295750806020938392526003845220549051908152f35b91516322718ad960e21b815291820152602490fd5b509190346101c95760203660031901126101c95761055a6108c2565b600754926000198414610582576020848461057c828660018201600755610cf3565b51908152f35b634e487b7160e01b815260118552602490fd5b50913461046057602036600319011261046057506105b560209235610cb8565b90516001600160a01b039091168152f35b5050346101c957366003190112610460576102a66105e26108c2565b6105ea610998565b60243590610cf3565b5050346101c9576102a690610607366108f3565b9192519261061484610928565b858452610b63565b8334610460576102a661062e366108f3565b916109c4565b50903461017757806003193601126101775761064e6108c2565b9160243561065b81610cb8565b331515806106fd575b806106d4575b6106be576001600160a01b039485169482918691167f8c5be1e5ebec7d5bd14f71427d1e84f3dd0314c0f7b2291e5b200ac8c7c3b9258880a48452602052822080546001600160a01b031916909117905580f35b835163a9fbf51f60e01b81523381850152602490fd5b506001600160a01b03811686526005602090815284872033885290528386205460ff161561066a565b506001600160a01b038116331415610664565b50346101775760203660031901126101775791826020933561073181610cb8565b50825283528190205490516001600160a01b039091168152f35b50913461046057806003193601126104605781519181825492600184811c9181861695861561080c575b6020968785108114610443578899509688969785829a52918260001461041c5750506001146107b15750505061021c92916103b291038561095a565b91908693508280527f290decd9548b62a8d60345a988386fc84ba6bc95484008f6362f93160ef3e5635b8284106107f457505050820101816103b261021c61039f565b8054848a0186015288955087949093019281016107db565b92607f1692610775565b92505034610177576020366003190112610177573563ffffffff60e01b811680910361017757602092506380ac58cd60e01b8114908115610871575b8115610860575b5015158152f35b6301ffc9a760e01b14905038610859565b635b5e139f60e01b81149150610852565b919082519283825260005b8481106108ae575050826000602080949584010152601f8019910116010190565b60208183018101518483018201520161088d565b600435906001600160a01b03821682036108d857565b600080fd5b602435906001600160a01b03821682036108d857565b60609060031901126108d8576001600160a01b039060043582811681036108d8579160243590811681036108d8579060443590565b6020810190811067ffffffffffffffff82111761094457604052565b634e487b7160e01b600052604160045260246000fd5b90601f8019910116810190811067ffffffffffffffff82111761094457604052565b67ffffffffffffffff811161094457601f01601f191660200190565b6006546001600160a01b031633036109ac57565b60405163118cdaa760e01b8152336004820152602490fd5b6001600160a01b039182169290918315610b4a57600092828452826020956002875260409684888820541696879133151580610ab4575b509060027fddf252ad1be2c89b69c2b068fc378daa952ba7f163c4a11628f55a4df523b3ef9284610a81575b858352600381528b8320805460010190558683525289812080546001600160a01b0319168517905580a41692838303610a605750505050565b6064945051926364283d7b60e01b8452600484015260248301526044820152fd5b600087815260046020526040902080546001600160a01b0319169055848352600381528b83208054600019019055610a27565b91939450915080610b09575b15610ad0578592918791386109fb565b878688610aed576024915190637e27328960e01b82526004820152fd5b604491519063177e802f60e01b82523360048301526024820152fd5b503387148015610b2e575b80610ac05750858252600481523385898420541614610ac0565b5086825260058152878220338352815260ff8883205416610b14565b604051633250574960e11b815260006004820152602490fd5b929092610b718385836109c4565b833b610b7e575b50505050565b604051630a85bd0160e11b8082523360048301526001600160a01b0392831660248301526044820194909452608060648201529493169260209290918590610bca906084830190610882565b039483816000978189895af1869181610c74575b50610c3f575050503d600014610c36573d610bf88161097c565b90610c06604051928361095a565b81528093823d92013e5b82519283610c3157604051633250574960e11b815260048101849052602490fd5b019050fd5b60609250610c10565b919450915063ffffffff60e01b1603610c5c575038808080610b78565b60249060405190633250574960e11b82526004820152fd5b9091508481813d8311610cb1575b610c8c818361095a565b81010312610cad57516001600160e01b031981168103610cad579038610bde565b8680fd5b503d610c82565b6000818152600260205260409020546001600160a01b0316908115610cdb575090565b60249060405190637e27328960e01b82526004820152fd5b6001600160a01b0391908216908115610b4a576000928184526002602052604084205416918215159283610d9b575b81855260036020526040852060018154019055828552600260205260408520826bffffffffffffffffffffffff60a01b8254161790557fddf252ad1be2c89b69c2b068fc378daa952ba7f163c4a11628f55a4df523b3ef8580a4610d835750565b602490604051906339e3563760e11b82526004820152fd5b600083815260046020526040902080546001600160a01b03191690558085526003602052604085208054600019019055610d2256fea2646970667358221220b34a85b17eea7b19983562c565dfb0d632c86ed4ecefd1ccb47f419880ff19d964736f6c63430008140033",
  "linkReferences": {},
  "deployedLinkReferences": {}
}