{
  "_format": "hh-sol-artifact-1",
  "contractName": "RevenueDistributor",
  "sourceName": "contracts/RevenueDistributor.sol",
  "abi": [
    {
      "inputs": [
        {
          "internalType": "address",
          "name": "_owner",
          "type": "address"
        }
      ],
      "stateMutability": "nonpayable",
      "type": "constructor"
    },
    {
      "inputs": [
        {
          "internalType": "address",
          "name": "owner",
          "type": "address"
        }
      ],
      "name": "OwnableInvalidOwner",
      "type": "error"
    },
    {
      "inputs": [
        {
          "internalType": "address",
          "name": "account",
          "type": "address"
        }
      ],
      "name": "OwnableUnauthorizedAccount",
      "type": "error"
    },
    {
      "inputs": [],
      "name": "ReentrancyGuardReentrantCall",
      "type": "error"
    },
    {
      "anonymous": false,
      "inputs": [
        {
          "indexed": true,
          "internalType": "address",
          "name": "user",
          "type": "address"
        },
        {
          "indexed": true,
          "internalType": "uint256",
          "name": "distributionId",
          "type": "uint256"
        },
        {
          "indexed": false,
          "internalType": "uint256",
          "name": "amount",
          "type": "uint256"
        }
      ],
      "name": "Claimed",
      "type": "event"
    },
    {
      "anonymous": false,
      "inputs": [
        {
          "indexed": true,
          "internalType": "uint256",
          "name": "id",
          "type": "uint256"
        },
        {
          "indexed": false,
          "internalType": "uint256",
          "name": "amount",
          "type": "uint256"
        },
        {
          "indexed": false,
          "internalType": "uint256",
          "name": "snapshotId",
          "type": "uint256"
        },
        {
          "indexed": false,
          "internalType": "uint256",
          "name": "timestamp",
          "type": "uint256"
        }
      ],
      "name": "DistributionCreated",
      "type": "event"
    },
    {
      "anonymous": false,
      "inputs": [
        {
          "indexed": true,
          "internalType": "address",
          "name": "previousOwner",
          "type": "address"
        },
        {
          "indexed": true,
          "internalType": "address",
          "name": "newOwner",
          "type": "address"
        }
      ],
      "name": "OwnershipTransferred",
      "type": "event"
    },
    {
      "anonymous": false,
      "inputs": [
        {
          "indexed": true,
          "internalType": "address",
          "name": "from",
          "type": "address"
        },
        {
          "indexed": false,
          "internalType": "uint256",
          "name": "amount",
          "type": "uint256"
        }
      ],
      "name": "RevenueDeposited",
      "type": "event"
    },
    {
      "inputs": [
        {
          "internalType": "uint256",
          "name": "distributionId",
          "type": "uint256"
        }
      ],
      "name": "claim",
      "outputs": [],
      "stateMutability": "nonpayable",
      "type": "function"
    },
    {
      "inputs": [
        {
          "internalType": "uint256[]",
          "name": "distributionIds",
          "type": "uint256[]"
        }
      ],
      "name": "claimMultiple",
      "outputs": [],
      "stateMutability": "nonpayable",
      "type": "function"
    },
    {
      "inputs": [
        {
          "internalType": "uint256",
          "name": "amount",
          "type": "uint256"
        },
        {
          "internalType": "address[]",
          "name": "holders",
          "type": "address[]"
        },
        {
          "internalType": "uint256[]",
          "name": "balances",
          "type": "uint256[]"
        }
      ],
      "name": "createDistribution",
      "outputs": [],
      "stateMutability": "nonpayable",
      "type": "function"
    },
    {
      "inputs": [
        {
          "internalType": "uint256",
          "name": "amount",
          "type": "uint256"
        }
      ],
      "name": "depositRevenue",
      "outputs": [],
      "stateMutability": "nonpayable",
      "type": "function"
    },
    {
      "inputs": [],
      "name": "distributionCount",
      "outputs": [
        {
          "internalType": "uint256",
          "name": "",
          "type": "uint256"
        }
      ],
      "stateMutability": "view",
      "type": "function"
    },
    {
      "inputs": [
        {
          "internalType": "uint256",
          "name": "",
          "type": "uint256"
        }
      ],
      "name": "distributions",
      "outputs": [
        {
          "internalType": "uint256",
          "name": "id",
          "type": "uint256"
        },
        {
          "internalType": "uint256",
          "name": "totalAmount",
          "type": "uint256"
        },
        {
          "internalType": "uint256",
          "name": "timestamp",
          "type": "uint256"
        },
        {
          "internalType": "uint256",
          "name": "claimedAmount",
          "type": "uint256"
        },
        {
          "internalType": "uint256",
          "name": "totalSupplyAtSnapshot",
          "type": "uint256"
        }
      ],
      "stateMutability": "view",
      "type": "function"
    },
    {
      "inputs": [],
      "name": "fractionTokenAddress",
      "outputs": [
        {
          "internalType": "address",
          "name": "",
          "type": "address"
        }
      ],
      "stateMutability": "view",
      "type": "function"
    },
    {
      "inputs": [
        {
          "internalType": "uint256",
          "name": "distributionId",
          "type": "uint256"
        },
        {
          "internalType": "address",
          "name": "user",
          "type": "address"
        }
      ],
      "name": "getClaimableAmount",
      "outputs": [
        {
          "internalType": "uint256",
          "name": "",
          "type": "uint256"
        }
      ],
      "stateMutability": "view",
      "type": "function"
    },
    {
      "inputs": [
        {
          "internalType": "uint256",
          "name": "distributionId",
          "type": "uint256"
        }
      ],
      "name": "getDistributionInfo",
      "outputs": [
        {
          "internalType": "uint256",
          "name": "id",
          "type": "uint256"
        },
        {
          "internalType": "uint256",
          "name": "totalAmount",
          "type": "uint256"
        },
        {
          "internalType": "uint256",
          "name": "timestamp",
          "type": "uint256"
        },
        {
          "internalType": "uint256",
          "name": "claimedAmount",
          "type": "uint256"
        },
        {
          "internalType": "uint256",
          "name": "totalSupplyAtSnapshot",
          "type": "uint256"
        },
        {
          "internalType": "address[]",
          "name": "snapshotHolders",
          "type": "address[]"
        }
      ],
      "stateMutability": "view",
      "type": "function"
    },
    {
      "inputs": [
        {
          "internalType": "uint256",
          "name": "distributionId",
          "type": "uint256"
        },
        {
          "internalType": "address",
          "name": "user",
          "type": "address"
        }
      ],
      "name": "getSnapshotBalance",
      "outputs": [
        {
          "internalType": "uint256",
          "name": "",
          "type": "uint256"
        }
      ],
      "stateMutability": "view",
      "type": "function"
    },
    {
      "inputs": [
        {
          "internalType": "address",
          "name": "user",
          "type": "address"
        }
      ],
      "name": "getTotalClaimableAmount",
      "outputs": [
        {
          "internalType": "uint256",
          "name": "",
          "type": "uint256"
        }
      ],
      "stateMutability": "view",
      "type": "function"
    },
    {
      "inputs": [
        {
          "internalType": "uint256",
          "name": "",
          "type": "uint256"
        },
        {
          "internalType": "address",
          "name": "",
          "type": "address"
        }
      ],
      "name": "hasClaimed",
      "outputs": [
        {
          "internalType": "bool",
          "name": "",
          "type": "bool"
        }
      ],
      "stateMutability": "view",
      "type": "function"
    },
    {
      "inputs": [
        {
          "internalType": "address",
          "name": "_fractionTokenAddress",
          "type": "address"
        },
        {
          "internalType": "address",
          "name": "_usdcAddress",
          "type": "address"
        }
      ],
      "name": "initialize",
      "outputs": [],
      "stateMutability": "nonpayable",
      "type": "function"
    },
    {
      "inputs": [],
      "name": "owner",
      "outputs": [
        {
          "internalType": "address",
          "name": "",
          "type": "address"
        }
      ],
      "stateMutability": "view",
      "type": "function"
    },
    {
      "inputs": [],
      "name": "renounceOwnership",
      "outputs": [],
      "stateMutability": "nonpayable",
      "type": "function"
    },
    {
      "inputs": [
        {
          "internalType": "address",
          "name": "newOwner",
          "type": "address"
        }
      ],
      "name": "transferOwnership",
      "outputs": [],
      "stateMutability": "nonpayable",
      "type": "function"
    },
    {
      "inputs": [],
      "name": "usdcAddress",
      "outputs": [
        {
          "internalType": "address",
          "name": "",
          "type": "address"
        }
      ],
      "stateMutability": "view",
      "type": "function"
    }
  ],
  "bytecode": "0x6080346100bf57601f61146938819003918201601f19168301916001600160401b038311848410176100c4578084926020946040528339810103126100bf57516001600160a01b0390818116908190036100bf5780156100a657600080546001600160a01b03198116831782556040519316907f8be0079c531659141344cd1fd0a4f28419497f9722a3daafe3b4186f6b6457e09080a36001805561138e90816100db8239f35b604051631e4fbdf760e01b815260006004820152602490fd5b600080fd5b634e487b7160e01b600052604160045260246000fdfe6080604081815260048036101561001557600080fd5b600092833560e01c90816302d4545714610f9d5750806308e95ad614610b83578063379607f5146109765780634487d3df14610924578063485cc955146107b3578063605d52eb146106f357806365e789a7146106a4578063715018a61461064a57806378c5195e1461061b578063873f6f9e146105d55780638da5cb5b146105ad5780639051cce914610397578063ab7f69541461036e578063bc1ca3e914610279578063c65c3d951461025c578063e08ed622146101675763f2fde38b146100de57600080fd5b34610163576020366003190112610163576100f7610ff8565b90610100611024565b6001600160a01b0391821692831561014d57505082546001600160a01b0319811683178455167f8be0079c531659141344cd1fd0a4f28419497f9722a3daafe3b4186f6b6457e08380a380f35b51631e4fbdf760e01b8152908101849052602490fd5b8280fd5b508290346102585760209182600319360112610255578193913561018d855482106111a8565b815260058352818120928354906001938486015495600281015497600660038301549183015492019883519384868c54918281520190819c8a52878a20908a5b81811061023957505050856101e39103866110b6565b80519960c08b01978b52868b01528901526060880152608087015260c060a08701525180925260e0850195925b82811061021d5785870386f35b83516001600160a01b0316875295810195928101928401610210565b82546001600160a01b0316845292890192918c01918c016101cd565b80fd5b5080fd5b503461016357826003193601126101635760209250549051908152f35b509034610163576020366003190112610163576102e860208335809461029d611185565b6102a8821515611050565b60035485516323b872dd60e01b8152339281019283523060208401526040830193909352919384926001600160a01b031691839189918391606090910190565b03925af19081156103645790610305918591610336575b50611280565b519081527f7899add10f1a002ae3ee854045bbc90bfd5f3d27f73a21ccbf97e5aaed84d0b260203392a26001805580f35b610357915060203d811161035d575b61034f81836110b6565b8101906110ee565b386102ff565b503d610345565b82513d86823e3d90fd5b50503461025857816003193601126102585760025490516001600160a01b039091168152602090f35b503461016357602090816003193601126105a957803567ffffffffffffffff81116105a5576103ca839136908401610fc2565b926103d3611185565b869187945b80861061047a57505061042b93506103f1821515611228565b600354865163a9059cbb60e01b8152339281019283526020830193909352919384926001600160a01b031691839189918391604090910190565b03925af191821561046d5761044993508492610450575b5050611280565b6001805580f35b6104669250803d1061035d5761034f81836110b6565b3880610442565b50505051903d90823e3d90fd5b919350919361048a818385611152565b35845481101561059b57808952600690818852888a20338b52885260ff898b20541661059057808a526005808952898b2090338c5281018952898b20548015610583578a8c8b6104ec6104e260019586880154611106565b8c87015490611208565b968761050e575b505050505050505061050490611143565b93918593916103d8565b93879c938361054b97936105049b9a978a6003975281528282209033835252209060ff1982541617905501610544838254611178565b9055611178565b9689519081527f987d620f307ff6b94d58743cb7a7509f24071586a77759b77c2d4e29f75a2f9a893392a3903880808a8c8b836104f3565b5050505061050490611143565b505061050490611143565b5061050490611143565b8480fd5b8380fd5b505034610258578160031936011261025857905490516001600160a01b039091168152602090f35b50346101635781600319360112610163578160209360ff926105f561100e565b90358252600686528282206001600160a01b039091168252855220549151911615158152f35b5091346102555781600319360112610255575061064360209261063c61100e565b90356112d8565b9051908152f35b8334610255578060031936011261025557610663611024565b80546001600160a01b03198116825581906001600160a01b03167f8be0079c531659141344cd1fd0a4f28419497f9722a3daafe3b4186f6b6457e08280a380f35b5034610163578160031936011261016357602092818392356106d06106c761100e565b925482106111a8565b825260058086528383206001600160a01b03909216835201845220549051908152f35b50903461016357602092836003193601126102555791610711610ff8565b815491906001600160a01b031684805b8481106107315787878751908152f35b80825260068852858220838352885260ff86832054166107aa57808252600580895286832090848452810189528683205480610778575b505061077390611143565b610721565b9761079c8287610793610773969c60016107a2970154611106565b91015490611208565b90611178565b969038610768565b61077390611143565b50346101635781600319360112610163576107cc610ff8565b906107d561100e565b906107de611024565b600254926001600160a01b03908185166108d157811692831561087b57169384156108275750506bffffffffffffffffffffffff60a01b80921617600255600354161760035580f35b906020608492519162461bcd60e51b8352820152602860248201527f526576656e75654469737472696275746f723a20496e76616c69642055534443604482015267206164647265737360c01b6064820152fd5b855162461bcd60e51b8152602081850152602a60248201527f526576656e75654469737472696275746f723a20496e76616c696420667261636044820152693a34b7b7103a37b5b2b760b11b6064820152608490fd5b855162461bcd60e51b8152602081850152602760248201527f526576656e75654469737472696275746f723a20416c726561647920696e69746044820152661a585b1a5e995960ca1b6064820152608490fd5b509034610163576020366003190112610163578060a093833581526005602052208054926001820154926002830154916003840154930154938151958652602086015284015260608301526080820152f35b50903461016357602090816003193601126105a957823592610996611185565b6109a2815485106111a8565b83855260068352818520338652835260ff8286205416610b36578385526005835281852090338652600582018452828620548015610ae0579382610a72926109ff6109f560039860018699980154611106565b8284015490611208565b968792610a0d841515611228565b898b5260068552868b20338c528552868b20600160ff1982541617905501610a36838254611178565b9055600354855163a9059cbb60e01b8152339281019283526020830193909352919384926001600160a01b03169183918b918391604090910190565b03925af1908115610ad6577f987d620f307ff6b94d58743cb7a7509f24071586a77759b77c2d4e29f75a2f9a939291610ab1918891610abf5750611280565b519283523392a36001805580f35b6103579150843d861161035d5761034f81836110b6565b82513d88823e3d90fd5b835162461bcd60e51b8152808301869052602a60248201527f526576656e75654469737472696275746f723a204e6f2062616c616e636520616044820152691d081cdb985c1cda1bdd60b21b6064820152608490fd5b82608492519162461bcd60e51b8352820152602360248201527f526576656e75654469737472696275746f723a20416c726561647920636c61696044820152621b595960ea1b6064820152fd5b509190346102585760603660031901126102585767ffffffffffffffff928035916024918235868111610f9957610bbd9036908301610fc2565b90604435888111610f9557610bd59036908501610fc2565b90610bde611024565b6002546001600160a01b039390841615610f4757610bfa611185565b610c05891515611050565b828503610ef9578415610eb75785969798999a84600354168b8d8b51928380926323b872dd60e01b82528160209e8f96303392840192610c619360409194939294606082019560018060a01b0380921683521660208201520152565b03925af1908115610ead578d91610e90575b5015610e3d57918b9391879695938c9a9998549b8c875260058a528a8720968d885560019e8f890155426002890155600388015560068701918811610e2c57680100000000000000008811610e2c5750808e9154888255888b828210610dfa575b505050918d8d9a9998949297969593829089528a892091895b878110610dc7575050505086809560058801915b868810610d5c575050505050505050916060959391817f030cc28c5178dde1c0af5e41877502b965d3c466c9e80aca0b05556daa0c9f649896940155610d478154611143565b905582519384528301524290820152a2805580f35b8b9c5098838e889a9b858b9e9f86610d96610d918d9f8d9f610dae9b9d9f610db49d9f610d8a918491611152565b3599611152565b61112f565b168352522055610da78b8989611152565b3590611178565b98611143565b949290918f928e9b9a9998979593610d01565b91939597989950919395999a809c50610ddf8461112f565b9301928185015501918f97969593918f8f9c9b9a9694610ced565b50508e828452898c852092830192015b828110610e1a575050888b610cd4565b90919293815501908f92918f90610e0a565b634e487b7160e01b8f52604189528efd5b885162461bcd60e51b81528088018990526028818c01527f526576656e75654469737472696275746f723a2055534443207472616e7366656044820152671c8819985a5b195960c21b6064820152608490fd5b610ea79150893d8b1161035d5761034f81836110b6565b38610c73565b8a513d8f823e3d90fd5b865162461bcd60e51b8152602081880152601e818a01527f526576656e75654469737472696275746f723a204e6f20686f6c6465727300006044820152606490fd5b865162461bcd60e51b81526020818801526023818a01527f526576656e75654469737472696275746f723a204c656e677468206d69736d616044820152620e8c6d60eb1b6064820152608490fd5b865162461bcd60e51b81526020818801526023818a01527f526576656e75654469737472696275746f723a204e6f7420696e697469616c696044820152621e995960ea1b6064820152608490fd5b8780fd5b8580fd5b8490346102585781600319360112610258576003546001600160a01b03168152602090f35b9181601f84011215610ff35782359167ffffffffffffffff8311610ff3576020808501948460051b010111610ff357565b600080fd5b600435906001600160a01b0382168203610ff357565b602435906001600160a01b0382168203610ff357565b6000546001600160a01b0316330361103857565b60405163118cdaa760e01b8152336004820152602490fd5b1561105757565b60405162461bcd60e51b815260206004820152603160248201527f526576656e75654469737472696275746f723a20416d6f756e74206d75737420604482015270062652067726561746572207468616e203607c1b6064820152608490fd5b90601f8019910116810190811067ffffffffffffffff8211176110d857604052565b634e487b7160e01b600052604160045260246000fd5b90816020910312610ff357518015158103610ff35790565b8181029291811591840414171561111957565b634e487b7160e01b600052601160045260246000fd5b356001600160a01b0381168103610ff35790565b60001981146111195760010190565b91908110156111625760051b0190565b634e487b7160e01b600052603260045260246000fd5b9190820180921161111957565b600260015414611196576002600155565b604051633ee5aeb560e01b8152600490fd5b156111af57565b60405162461bcd60e51b815260206004820152602b60248201527f526576656e75654469737472696275746f723a20496e76616c6964206469737460448201526a1c9a589d5d1a5bdb88125160aa1b6064820152608490fd5b8115611212570490565b634e487b7160e01b600052601260045260246000fd5b1561122f57565b60405162461bcd60e51b8152602060048201526024808201527f526576656e75654469737472696275746f723a204e6f7468696e6720746f20636044820152636c61696d60e01b6064820152608490fd5b1561128757565b60405162461bcd60e51b815260206004820152602360248201527f526576656e75654469737472696275746f723a205472616e73666572206661696044820152621b195960ea1b6064820152608490fd5b90600454821015611351576000918083526006602052604083209160018060a01b03169182845260205260ff60408420541661134c57825260056020526040822090825260058101602052604082205491821561134657506004610793611343936001840154611106565b90565b91505090565b505090565b505060009056fea264697066735822122059c508c2d0d578792e468ba098de7265af6dd1dfc5b616b8b39639ccc0751b3864736f6c63430008140033",
  "linkReferences": {},
  "deployedLinkReferences": {}
}